:100000000C940E030C9478090C9451090C946E1FF7
:100010000C946E1F0C946E1F0C9436030C942908DC
:100020000C9436030C9436030C9436030C9436036C
:100030000C9436030C9436030C9436030C9436035C
:100040000C9407090C9436030C9436030C94360375
:100050000C9436030C9436030C9436030C9436033C
:100060000C949F090C943603D21404153B156515A6
:100070009B153916E61539163716000000002400C6
:1000800027002A0000000008000201000003040706
:10009000000000000000000000000000003E5B4F78
:1000A0005B3E3E6B4F6B3E1C3E7C3E1C183C7E3CD8
:1000B000181C577D571C1C5E7F5E1C00183C1800E6
:1000C000FFE7C3E7FF0018241800FFE7DBE7FF3076
:1000D000483A060E2629792926407F050507407FE4
:1000E00005253F5A3CE73C5A7F3E1C1C08081C1C57
:1000F0003E7F14227F22145F5F005F5F06097F014D
:100100007F006689956A606060606094A2FFA29437
:1001100008047E040810207E201008082A1C080805
:100120001C2A08081E101010100C1E0C1E0C303853
:100130003E3830060E3E0E06000000000000005F54
:1001400000000007000700147F147F14242A7F2A70
:100150001223130864623649562050000807030032
:10016000001C2241000041221C002A1C7F1C2A087E
:10017000083E0808008070300008080808080000E1
:1001800060600020100804023E5149453E00427F55
:10019000400072494949462141494D331814127FA4
:1001A0001027454545393C4A494931412111090744
:1001B0003649494936464949291E000014000000C5
:1001C0004034000000081422411414141414004197
:1001D00022140802015909063E415D594E7C121154
:1001E000127C7F494949363E414141227F4141418C
:1001F0003E7F494949417F090909013E4141517307
:100200007F0808087F00417F41002040413F017F77
:10021000081422417F404040407F021C027F7F043F
:1002200008107F3E4141413E7F090909063E415188
:10023000215E7F09192946264949493203017F0178
:10024000033F4040403F1F2040201F3F4038403F79
:10025000631408146303047804036159494D43008F
:100260007F4141410204081020004141417F0402C6
:10027000010204404040404000030708002054545D
:1002800078407F284444383844444428384444283B
:100290007F385454541800087E090218A4A49C788E
:1002A0007F0804047800447D40002040403D007FEA
:1002B0001028440000417F40007C047804787C08CA
:1002C0000404783844444438FC182424181824249E
:1002D00018FC7C08040408485454542404043F4483
:1002E000243C4040207C1C2040201C3C4030403CB2
:1002F00044281028444C9090907C4464544C440012
:100300000836410000007700000041360800020175
:100310000204023C2623263C1EA1A161123A404061
:10032000207A3854545559215555794122545478DE
:1003300042215554784020545579400C1E52721277
:100340003955555559395454545939555454580000
:1003500000457C410002457D420001457C407D1204
:1003600011127DF0282528F07C5455450020545466
:100370007C547C0A097F4932494949323A44444411
:100380003A324A4848303A4141217A3A424020784C
:10039000009DA0A07D3D4242423D3D4040403D3C4D
:1003A00024FF2424487E4943662B2FFC2F2BFF0972
:1003B00029F620C0887E0903205454794100004466
:1003C0007D413048484A32384040227A007A0A0A51
:1003D000727D0D19317D2629292F282629292926C4
:1003E00030484D4020380808080808080808382F09
:1003F00010C8ACBA2F102834FA00007B0000081493
:100400002A142222142A14085500550055AA55AA68
:1004100055AAFF55FF55FF000000FF00101010FF08
:1004200000141414FF001010FF00FF1010F010F063
:10043000141414FC001414F700FF0000FF00FF1454
:1004400014F404FC141417101F10101F101F1414A0
:10045000141F00101010F0000000001F10101010EA
:100460001F10101010F010000000FF1010101010DE
:1004700010101010FF10000000FF140000FF00FF1C
:1004800000001F10170000FC04F4141417101714B8
:1004900014F404F40000FF00F714141414141414DA
:1004A000F700F7141414171410101F101F1414144D
:1004B000F4141010F010F000001F101F0000001FB7
:1004C00014000000FC140000F010F01010FF10FFEA
:1004D000141414FF141010101F00000000F010FF7F
:1004E000FFFFFFFFF0F0F0F0F0FFFFFF0000000063
:1004F00000FFFF0F0F0F0F0F3844443844FC4A4AE7
:100500004A347E02020606027E027E02635549419B
:10051000633844443C04407E201E2006027E0202D2
:1005200099A5E7A5991C2A492A1C4C7201724C30E6
:100530004A4D4D303048784830BC625A463D3E49BD
:100540004949007E0101017E2A2A2A2A2A44445F61
:10055000444440514A444040444A51400000FF0155
:1005600003E080FF000008086B6B08361236243663
:10057000060F090F060000181800000010100030C8
:1005800040FF0101001F01011E00191D1712003C50
:100590003C3C3C00000000003CB7F37E7EF3B73CDF
:1005A00000003180318000001F003F80318000005A
:1005B000004000E001C0038027007E003C001800DE
:1005C0001160362062606240304033606630020065
:1005D00048454C4C4F5F49520D0A00020000000094
:1005E000250028002B000000000023002600290021
:1005F00004040404040404040202020202020303C9
:1006000003030303010204081020408001020408D0
:10061000102001020408102075264B2611241FBE4D
:10062000CFEFD8E0DEBFCDBF26E0A6EAB4E001C040
:100630001D92A036B207E1F714E0A0E0B1E0E2ECD1
:10064000FAE502C005900D92A63AB107D9F713E07A
:10065000CDE0D3E004C02197FE010E94122BCC30E4
:10066000D107C9F70E9478200C94542D0C940000F7
:100670000895CF92DF92EF92FF920F931F93CF9343
:10068000DF936C017A018B01C0E0D0E0CE15DF056D
:1006900089F0D8016D918D01D601ED91FC91019009
:1006A000F081E02DC6010995892B11F47E0102C06D
:1006B0002196ECCFC701DF91CF911F910F91FF9051
:1006C000EF90DF90CF900895833081F028F481304F
:1006D00099F08230A1F008958730A9F08830B9F000
:1006E0008430D1F4809180008F7D03C080918000A0
:1006F0008F7780938000089584B58F7702C084B58A
:100700008F7D84BD08958091B0008F7703C0809164
:10071000B0008F7D8093B00008953FB7F89480912A
:10072000600590916105A0916205B091630526B5C1
:10073000A89B05C02F3F19F00196A11DB11D3FBF19
:10074000BA2FA92F982F8827820F911DA11DB11DA7
:10075000BC01CD0142E0660F771F881F991F4A95A3
:10076000D1F70895089585ED8093BC008091BC0079
:1007700084FDFCCF10929305089540913605262FF5
:1007800030E0240F311D21323105DCF42091930536
:100790002430C9F4FC0180E090E0861758F43091D1
:1007A00036052191DC01AC5EBA4FA30FB11D2C932D
:1007B0000196F3CF80913605680F6093360580E08F
:1007C000089581E0089582E008950895E091A704D6
:1007D0008091A604E81730F4F0E0EC50FB4F8081E4
:1007E00090E008958FEF9FEF08959091A704809176
:1007F000A604981750F4E92FF0E0EC50FB4F20814D
:1008000030E09F5F9093A70402C02FEF3FEFC90134
:1008100008958091A60490E02091A704821B91097D
:100820000895CF92DF92EF92FF920F931F93CF9391
:10083000DF937C01262F972F8A01809194058823CE
:1008400091F0C62FD72F6E01C40ED51ECC15DD0535
:1008500071F06991D701ED91FC910190F081E02D4B
:10086000C7010995F3CF642F822F0E94BD03C801F1
:10087000DF91CF911F910F91FF90EF90DF90CF907C
:100880000895CF93DF931F92CDB7DEB76983209190
:1008900094052223D1F02091B705203240F021E0C9
:1008A00030E0FC013383228380E090E015C080912A
:1008B0009505E82FF0E0EA56FA4F998190838F5F13
:1008C000809395058093B70505C061E0CE01019640
:1008D0000E94BD0381E090E00F90DF91CF910895D9
:1008E0002091AA043091AB042817390771F4909134
:1008F000A8048091A904981741F0E091A804F0E0C1
:10090000EC54FB4F808190E008958FEF9FEF0895A6
:1009100008950F931F93CF93DF93EC018881998102
:10092000009729F02A813B812617370788F48B012D
:100930006F5F7F4F0E94622C009761F099838883DC
:100940001B830A832C813D81232B11F4FC0110822F
:1009500081E001C080E0DF91CF911F910F91089558
:10096000AF92BF92CF92DF92EF92FF920F931F93BD
:10097000CF93DF93DC01CD90DC901197C114D104AB
:1009800009F442C01496CD91DC9115972097E1F1BE
:100990008C0156017501BFEFAB1ABB0AF7018081CC
:1009A000082E000C990B0E940028892B99F721979B
:1009B000CC0DDD1D8881082E000C990B0E940028AB
:1009C000892B91F4AE014F5F5F4F4E195F09D8013B
:1009D00015965C934E931497CE14DF0450F4B70130
:1009E000C6010E942C2D05C0CE15DF0558F32197B6
:1009F000E1CFD801ED91FC91119714968D919C91C6
:100A00001597E80FF91F1082DF91CF911F910F9179
:100A1000FF90EF90DF90CF90BF90AF900895CF936D
:100A2000DF93DC011496ED91FC9115976E177F070B
:100A300028F54115510511F19F01261B370B42176F
:100A4000530708F49A01DB01EC0188819981E21BCC
:100A5000F30BFD83EC83AF01461B570B260F371FAB
:100A6000BC01620F731F8A0F9B1F0E94452DE881F6
:100A7000F9818C819D81E80FF91F1082DF91CF9160
:100A80000895FC01248135816217730720F4808169
:100A90009181009729F41092640584E695E0089509
:100AA000860F971F0895FC0124813581232B31F493
:100AB00021E061157105A1F0FB0108C0FC018081F6
:100AC00091816115710531F421E0FC018081882359
:100AD00039F005C00E94352D21E0892B09F020E076
:100AE000822F0895EF92FF920F931F93CF93DF937E
:100AF000FC01248135816115710511F480E019C074
:100B000041155105A9F07B01EC018A01020F131F69
:100B1000B8010E948904882389F3288139818C8156
:100B20009D81B701820F931F0E943E2D1D830C8370
:100B300081E0DF91CF911F910F91FF90EF90089589
:100B40006115710551F0FB0101900020E9F7319723
:100B5000AF01461B570B0C94720580E00895CF93AC
:100B6000DF93EC0188819981009711F00E94CA2BD4
:100B7000198218821D821C821B821A82DF91CF91FA
:100B80000895EF92FF920F931F93CF93DF93EC01A1
:100B90007B018A01BA010E948904811104C0CE013F
:100BA0000E94AF0507C01D830C83B701888199811E
:100BB0000E943E2DCE01DF91CF911F910F91FF90AA
:100BC000EF900895FC01808191810C94CA2BEF92E3
:100BD000FF920F931F93CF93DF93CDB7DEB762974A
:100BE0000FB6F894DEBF0FBECDBF8C01CB01F8016C
:100BF00011821082138212821582148250E09E01AB
:100C00002F5F3F4F7901B9010E94C827F70101907A
:100C10000020E9F73197AF014E195F09B701C8010C
:100C20000E94C10562960FB6F894DEBF0FBECDBF1D
:100C3000DF91CF911F910F91FF90EF900895FB01ED
:100C4000DC0111961C921E9213961C921E92129712
:100C500015961C921E9214978617970749F060818B
:100C600071816115710521F0448155810C94C10594
:100C70000895FC011182108213821282158214825F
:100C80006115710551F0FB0101900020E9F73197E2
:100C9000AF01461B570B0C94C1050895DC01ED9183
:100CA000FC910190F081E02D0994DC01ED91FC9123
:100CB000DB0114964D915C9115976D917C910280AA
:100CC000F381E02D09946115710579F0FB01019024
:100CD0000020E9F73197AF01461B570BDC01ED917E
:100CE000FC910280F381E02D099480E090E008956A
:100CF0004F925F926F927F92EF92FF920F931F93AA
:100D0000CF93DF93CDB7DEB7A1970FB6F894DEBFD0
:100D10000FBECDBF7C01FA01CB0119A2223008F42D
:100D20002AE08E010F5D1F4F422E512C612C712C39
:100D3000BF01A30192010E94F02AF901CA010150EA
:100D400011096A3014F4605D01C0695CD8016C93CC
:100D5000232B242B252B61F7B801C7010E946306C2
:100D6000A1960FB6F894DEBF0FBECDBFDF91CF9135
:100D70001F910F91FF90EF907F906F905F904F9039
:100D800008954F925F926F927F928F929F92AF924F
:100D9000BF92CF92DF92EF92FF92CF93DF93EC015D
:100DA0006A017B01B22E9A01AB01C701B6010E9414
:100DB000AE2A882319F065EA73E027C026013701BF
:100DC000E89477F82FEF3FEF4FE75FE7C301B201F9
:100DD0000E94AE2A81110DC02FEF3FEF4FE75FE772
:100DE000C301B2010E94192818161CF469EA73E0C5
:100DF0000CC02FEF3FEF4FE75FE4C701B6010E9441
:100E0000852A18169CF46DEA73E0CE01DF91CF912C
:100E1000FF90EF90DF90CF90BF90AF909F908F901A
:100E20007F906F905F904F900C9463062FEF3FEF91
:100E30004FE75FECC701B6010E94192887FDE3CF99
:100E400020E030E0A901C701B6010E94192887FF00
:100E50000AC06DE2CE010E944E064C01F7FAF094F2
:100E6000F7F8F09402C0812C912CA12C60E070E086
:100E700080E09FE3AB1441F020E030E040E251E439
:100E80000E94E429A394F6CF9B01AC01C701B601EF
:100E90000E9478292B013C010E94562A6B017C019B
:100EA0000E941E289B01AC01C301B2010E94772958
:100EB0002B013C012AE0B701A601CE010E94780671
:100EC0007C01E80CF91CBB2031F06EE2CE010E94DF
:100ED0004E06E80EF91EDB2CDD2029F120E030E083
:100EE00040E251E4C301B2010E947F282B013C0182
:100EF0000E94562A4B01A12CB12C2AE0B501A40175
:100F0000CE010E947806E80EF91EC501B4010E94C8
:100F10001E289B01AC01C301B2010E9477292B015D
:100F20003C01DA94D9CFC701DF91CF91FF90EF90C8
:100F3000DF90CF90BF90AF909F908F907F906F90F9
:100F40005F904F9008950C946306CF93DF93282F02
:100F500030E0F901EC57FF4F8491F901EC5FF94F54
:100F6000D491F901E051FA4FC491CC2391F0811151
:100F70000E946403EC2FF0E0EE0FFF1FEA51FA4FDE
:100F8000A591B491EC91ED2381E090E021F480E013
:100F900002C080E090E0DF91CF9108951F93CF933E
:100FA000DF93282F30E0F901EC57FF4F8491F901CE
:100FB000EC5FF94FD491F901E051FA4FC491CC2381
:100FC000C9F0162F81110E946403EC2FF0E0EE0FA0
:100FD000FF1FE452FA4FA591B4918FB7F894111105
:100FE00005C09C91ED2FE095E92302C0EC91ED2B1B
:100FF000EC938FBFDF91CF911F91089590910C01D9
:10100000981324C0EBEDF5E0E4919FEF90930C0171
:10101000E130B9F098F0E230C9F4909170009D7F12
:101020009093700091E09093B0009091B100987F00
:1010300094609093B1001092B30008C010926E00BB
:1010400005C090916F009D7F90936F0060E00C94BD
:10105000CE071F920F920FB60F9211242F933F933A
:101060004F935F936F937F938F939F93AF93BF93B0
:10107000EF93FF938091690590916A05A0916B05AC
:10108000B0916C05892B8A2B8B2B51F180916605D1
:10109000E0916705F09168059081892780838091B0
:1010A000690590916A05A0916B05B0916C051816C1
:1010B00019061A061B06C4F48091690590916A0509
:1010C000A0916B05B0916C050197A109B1098093BE
:1010D000690590936A05A0936B05B0936C0504C0F5
:1010E00080910C010E94FE07FF91EF91BF91AF919B
:1010F0009F918F917F916F915F914F913F912F9130
:101100000F900FBE0F901F901895CF93DF9390E034
:10111000FC01EC5FF94F2491FC01E051FA4F8491FE
:10112000882361F190E0880F991FFC01E658FF4F7A
:10113000C591D491FC01E452FA4FA591B49161118B
:1011400009C09FB7F8948881209582238883EC9109
:101150002E230BC0623061F49FB7F8943881822F40
:10116000809583238883EC912E2B2C939FBF06C000
:101170008FB7F894E8812E2B28838FBFDF91CF9112
:1011800008958F929F92AF92BF92CF92DF92EF928B
:10119000FF926B017C010E948D034B015C01C11425
:1011A000D104E104F104F1F00E948D03DC01CB01D4
:1011B00088199909AA09BB09883E9340A105B10580
:1011C00070F321E0C21AD108E108F10888EE880E18
:1011D00083E0981EA11CB11CC114D104E104F104E8
:1011E00019F7DDCFFF90EF90DF90CF90BF90AF90D9
:1011F0009F908F9008952FB7F89460915C0570913F
:101200005D0580915E0590915F052FBF08951F9247
:101210000F920FB60F9211242F933F938F939F93AA
:10122000AF93BF9380915C0590915D05A0915E05A1
:10123000B0915F0530915B0523E0230F2D3720F43B
:101240000196A11DB11D05C026E8230F0296A11D20
:10125000B11D20935B0580935C0590935D05A09381
:101260005E05B0935F058091600590916105A09146
:101270006205B09163050196A11DB11D80936005C3
:1012800090936105A0936205B0936305BF91AF9100
:101290009F918F913F912F910F900FBE0F901F90B4
:1012A00018951F920F920FB60F9211242F933F9310
:1012B0004F935F936F937F938F939F93AF93BF935E
:1012C000EF93FF93E0910901F0910A010995FF91D5
:1012D000EF91BF91AF919F918F917F916F915F91AE
:1012E0004F913F912F910F900FBE0F901F90189527
:1012F0001F920F920FB60F9211242F933F934F938B
:101300005F936F937F938F939F93AF93BF93EF936D
:10131000FF93E0910701F09108010995FF91EF918A
:10132000BF91AF919F918F917F916F915F914F91FD
:101330003F912F910F900FBE0F901F9018951F9205
:101340000F920FB60F9211242F933F934F935F93F9
:101350006F937F938F939F93AF93BF93EF93FF937D
:101360008091B900887F803609F49CC068F5883286
:1013700009F45BC090F4803109F454C038F4882338
:1013800009F4F6C0883009F44DC0F6C0883109F47C
:101390004CC0803209F45DC0EFC0803409F468C0ED
:1013A00048F4803309F455C0883309F0E5C08093D0
:1013B0009105D8C0803509F44FC0883509F45DC067
:1013C000883409F0D9C0D6C0883909F4C7C0A8F458
:1013D000883709F467C038F4883609F463C0803769
:1013E00009F460C0C9C0883809F4B8C0803909F46C
:1013F0005FC0803809F0C0C05BC0803B09F486C084
:1014000038F4803A09F466C0883A09F47FC0B4C061
:10141000803C09F4A7C0883C09F4A4C0883B09F4C7
:101420008AC0AAC080916E0510C0909190058091ED
:101430008F05981770F5E091900581E08E0F8093ED
:101440009005F0E0E159FA4F80818093BB0085EC74
:1014500086C0809391058EC0E091900581E08E0F4B
:10146000809390058091BB00F0E0E159FA4F8083B2
:101470009091900580918F056EC0E091900581E07C
:101480008E0F809390058091BB00F0E0E159FA4FF8
:1014900080838091920581116DC081E080936D05FC
:1014A00084EA61C083E08093930510925A05CFCF00
:1014B00080915A05803208F051C0E0915A0581E0D0
:1014C0008E0F80935A058091BB00F0E0E65CFA4FE6
:1014D0008083BDCF85EC8093BC00109293058091F2
:1014E0005A05803230F4E0915A05F0E0E65CFA4F9C
:1014F000108260915A0570E0E0913805F09139054D
:101500008AE395E0099510925A0536C084E08093ED
:1015100093051092370510923605E0913405F0914D
:101520003505099580913605811105C081E08093CC
:10153000360510921405E091370581E08E0F8093F7
:101540003705F0E0EC5EFA4F80818093BB0090910C
:10155000370580913605981708F479CF85E8809390
:10156000BC000AC085EC8093BC001092930504C0B7
:10157000109291050E94B303FF91EF91BF91AF913B
:101580009F918F917F916F915F914F913F912F919B
:101590000F900FBE0F901F9018952F923F924F9271
:1015A0005F926F927F928F929F92AF92BF92CF92F3
:1015B000DF92EF92FF920F931F93CF93DF93CDB7FC
:1015C000DEB76C970FB6F894DEBF0FBECDBF9C8F11
:1015D0008B8F5B011A011F830E833701C982DC01E7
:1015E00058964D915C9159974115510509F0E5C008
:1015F00018968D919C911997681779070CF0CAC1BC
:101600001A968D919C911B97281639060CF0C2C131
:101610008C2C912CFB0136E0C39EE00DF11D1124B2
:10162000FB87EA871E161F060CF0B4C1C40133E025
:10163000880F991F3A95E1F79D878C87820D931D3E
:10164000181619060CF0A6C157968C91811103C08B
:10165000203B08F02F5FAB8DBC8DED91FC91119775
:101660000284F385E02DCD012A8F09952A8DB5E0FE
:101670002B9F90011124F5013596FF87EE87BB82E1
:10168000AA822501A9014A195B09598B488BC1011E
:1016900008969B8B8A8BE889F989E40DF51DE8563D
:1016A000FF4F9491988761013D822C82A885A0FF0D
:1016B00013C0AB8DBC8DED91FC91B981B13031F48B
:1016C0000484F585E02D2E813F8116C00684F785C0
:1016D000E02DEE80FF801AC0EE81FF816E167F063E
:1016E000F1F0AB8DBC8DED91FC91B981B13051F42D
:1016F0000484F585E02D9301A601B2018B8D9C8DAC
:1017000009950DC00684F785E02D730184019401CD
:101710004C815D816A817B818B8D9C8D0995E885EB
:10172000E695E887FFEFCF1ADF0A2C813D81280D6F
:10173000391D3D832C834A895B89C416D50609F07F
:10174000B5CF5FEF451A550A8A819B81880D991D97
:101750009B838A83AE85BF854A165B0609F09BCFC3
:10176000EE81FF816E167F0609F4F2C0EB8DFC8DD1
:10177000A081B181F981F13079F4B5016B5F7F4FC0
:101780005096ED91FC915197830128E030E0A10142
:101790008B8D9C8D0995DCC06A857B8568197909DC
:1017A0001E96ED91FC911F9773010C851D85940188
:1017B000A1018B8D9C8D0995CBC0FA013496949133
:1017C000329765917491291BCB01B7E02B9F800D57
:1017D000911D1124FA01259134913B8B2A8BFC0138
:1017E000459154915B834A83FC013296C4903196B3
:1017F00054915E87329614913196D49089818230CB
:1018000058F0612E012E000C7708AD2D0D2C000C28
:10181000BB0BB987A88704C019861886612C712C68
:10182000AB8DBC8DED91FC9111970284F385E02D79
:10183000CD010995B9818B2E912C689CC001699CC2
:10184000900D789C900D1124FC01EA0DFB1DFD8785
:10185000EC871C82712C612CE12F110FFF0B95017D
:101860002E0F3F1F3B872A87AC0CB11CA5014E0FE2
:101870005F1F5F8B4E8BC1018D0D911DD7FC9A951B
:10188000998F888F4E85641608F062C0862D90E08F
:1018900048855985480F591F489D9001499D300D35
:1018A000589D300D1124D901A20DB31DB98BA88B01
:1018B000AA84BB844C845D84DC80BA85DB1AE88D05
:1018C000F98DE80FF91FFD8BEC8B8D2D8A0D2E897C
:1018D0003F89A216B306B9F1877061F48A819B81B2
:1018E0000196EA89FB89AA81BB81EA0FFB1F7490EC
:1018F0009B838A8377FE20C0AB8DBC8DED91FC91DC
:10190000B981B13061F40484F585E02D2E813F81E9
:101910004C895D89B5018B8D9C8D09950DC0068420
:10192000F785E02DEE80FF80840194014889598974
:10193000B2018B8D9C8D0995770CEFEFAE1ABE0A24
:10194000480C591CC2CF3C813C0D3C8363949ACF18
:10195000AB8DBC8DED91FC9111970688F789E02D38
:10196000CD016C960FB6F894DEBF0FBECDBFDF91F0
:10197000CF911F910F91FF90EF90DF90CF90BF908C
:10198000AF909F908F907F906F905F904F903F901F
:101990002F9009946C960FB6F894DEBF0FBECDBFA2
:1019A000DF91CF911F910F91FF90EF90DF90CF903B
:1019B000BF90AF909F908F907F906F905F904F906F
:1019C0003F902F900895AF92BF92CF92EF92FF92E7
:1019D0000F931F93CF93DF93EC01262F888D998D62
:1019E000009709F040C06A3059F41D861C862C8986
:1019F0008E859F8538E0239F800D911D112441C065
:101A00006D3009F4AAC08E898823C1F03C898C8589
:101A10009D8546E0349F800D911D11244885598590
:101A2000481759075CF41D861C868E859F8548E003
:101A3000349F800D911D11249F878E87EA88FB8833
:101A4000088919894E855F856C857D85CC88CE0196
:101A50000E94CD0A2C898C859D8536E0239F800DC0
:101A6000911D112442C06A3079F41D861C862C8990
:101A7000FC013696E4918E859F852E9F800D911DE9
:101A800011249F878E8769C06D3009F466C0FC0100
:101A900034963491631708F460C03196E491E617E8
:101AA00008F45BC0FC013296A590B490462F50E03C
:101AB000431B510937E0349FB001359F700D11244D
:101AC000A60EB71EF501329634913196E491332378
:101AD00011F0E1110DC0F5013496E4912C898C854B
:101AE0009D85E29F800D911D11249D878C8735C0B7
:101AF000F501359644915E89552311F16C89E32FE8
:101B0000F0E0E40FF11D47FDFA956E9FD0016F9F45
:101B1000B00D11244C855D854A0F5B1FE885F98562
:101B2000E417F5076CF41D861C86FC013696E491DB
:101B30008E859F856E9F800D911D11249F878E87B6
:101B4000EA88FB88088919894E855F856C857D85C3
:101B5000CC88CE010E94CD0ABECF81E090E0DF911B
:101B6000CF911F910F91FF90EF90CF90BF90AF90CA
:101B700008956F927F928F929F92AF92BF92CF9271
:101B8000DF92EF92FF920F931F93CF93DF93EC01BD
:101B90004B015A0169013801E881F9810284F3851A
:101BA000E02D0995E881F9810288F389E02D87010C
:101BB0009601A501B401CE010995E881F981A5013D
:101BC000460D571D415051090288F389E02D9601B9
:101BD000B401CE010995E881F9810088F189E02DF1
:101BE0009301A501B401CE010995E881F981C80CE2
:101BF000D91CB601615071090088F189E02D93016B
:101C0000A501CE010995E881F9810688F789E02DC3
:101C1000CE01DF91CF911F910F91FF90EF90DF9058
:101C2000CF90BF90AF909F908F907F906F900994CE
:101C3000CF92DF92EF92FF920F931F93CF93DF9398
:101C400000D000D000D0CDB7DEB76C01DC01ED9143
:101C5000FC916217730789F4041715072CF4942F6D
:101C6000852FA801092F182F041B150B98012F5F32
:101C70003F4F048CF58DE02D12C04017510709F538
:101C8000261737072CF4962F872FB901292F382FC5
:101C9000261B370B2F5F3F4F068CF78DE02D8701FA
:101CA000C601099526960FB6F894DEBF0FBECDBFCC
:101CB000DF91CF911F910F91FF90EF90DF90CF9028
:101CC00008950284F385E02D2D833E834B835C834E
:101CD00069837A830995D601ED91FC910488F58991
:101CE000E02D2D813E814B815C8169817A81C60125
:101CF0000995D601ED91FC910688F789E02DC60182
:101D000026960FB6F894DEBF0FBECDBFDF91CF9100
:101D10001F910F91FF90EF90DF90CF900994EF9279
:101D2000FF920F931F93DC01ED91FC9111971A968E
:101D30000D911C911B9718962D913C91199700A01D
:101D4000F1A1E02D7B0140E050E060E070E00995FA
:101D50001F910F91FF90EF9008954F925F926F92B5
:101D60007F928F929F92AF92BF92CF92DF92EF922B
:101D7000FF920F931F93CF93DF9300D0CDB7DEB7C1
:101D80006C015A0139014801DC01ED91FC9102849A
:101D9000F385E02D69837A8309956981462E7A81DE
:101DA000572E640C751CD601ED91FC914614570416
:101DB0006CF40088F189E02D87019401A501B2013E
:101DC000C6010995BFEF4B1A5B0AEDCF0688F7896C
:101DD000E02DC6010F900F90DF91CF911F910F91D1
:101DE000FF90EF90DF90CF90BF90AF909F908F903B
:101DF0007F906F905F904F900994AF92BF92CF9277
:101E0000DF92EF92FF920F931F93CF93DF9300D057
:101E100000D0CDB7DEB75C016901DC01ED91FC912A
:101E20000284F385E02D4B835C8369837A83099573
:101E3000D501ED91FC9169817A819B012C0D3D1DAD
:101E4000215031090488F589E02D78014B815C81AE
:101E50008A01C5010995D501ED91FC910688F789A4
:101E6000E02DC5010F900F900F900F90DF91CF9153
:101E70001F910F91FF90EF90DF90CF90BF90AF90A8
:101E80000994AF92BF92CF92DF92EF92FF920F939D
:101E90001F93CF93DF9300D000D0CDB7DEB75C01A6
:101EA0006901DC01ED91FC910284F385E02D4B8307
:101EB0005C8369837A830995D501ED91FC914B810F
:101EC0005C81C40ED51EB1E0CB1AD1080488F58917
:101ED000E02D7801860169817A819B01C501099510
:101EE000D501ED91FC910688F789E02DC5010F9091
:101EF0000F900F900F90DF91CF911F910F91FF9056
:101F0000EF90DF90CF90BF90AF9009940895EF923B
:101F1000FF920F931F93DC01ED91FC9100A0F1A1C2
:101F2000E02D09951F910F91FF90EF9008950F9369
:101F30001F93DC01ED91FC91068CF78DE02D099546
:101F40001F910F9108950F931F93DC01ED91FC9168
:101F5000048CF58DE02D09951F910F910895DC01FA
:101F6000ED91FC910084F185E02D099408952F9264
:101F70003F924F925F926F927F928F929F92AF9219
:101F8000BF92CF92DF92EF92FF920F931F93CF9366
:101F9000DF9300D01F92CDB7DEB74C017B836A83FD
:101FA0006A01590117019801241B350B37FF03C043
:101FB000319521953109C5014A815B81841B950BBF
:101FC00097FF03C091958195910951E0598382173C
:101FD000930714F019820BC09A2D8B2D5801092FED
:101FE000182F9A818B81DB82CA82C92ED82E8A81D2
:101FF0009B81A816B9065CF49C2D8D2D6801092FD4
:10200000182F9A818B81BB82AA82A92EB82E250116
:10201000AA81BB814A1A5B0A38016C187D0877FED9
:1020200003C0719461947108720157FE03C0BFEF41
:10203000EB1AFB0AF594E794C016D1061CF00FEFDB
:102040001FEF1FC001E010E01CC0D401ED91FC9116
:10205000B9810484F585E02D9101BB23C1F04A814B
:102060005B81B601C4010995E618F708F7FE04C0C4
:10207000C00ED11EE40CF51CEA81FB813196FB8376
:10208000EA834A815B81A416B506FCF604C0A6016A
:102090006A817B81E7CF0F900F900F90DF91CF91F6
:1020A0001F910F91FF90EF90DF90CF90BF90AF9076
:1020B0009F908F907F906F905F904F903F902F9068
:1020C0000895089580E090E0089583B78E7F83BFE0
:1020D000E89882EB93E0909308018093070161E018
:1020E0008FE00C94CE07FF920F931F93CF93DF9353
:1020F00000D000D000D0CDB7DEB784E00E94A507A5
:1021000011E0019709F010E000910201F0900B013D
:10211000FF2071F061EB73E0CE0101960E94390659
:10212000CE0101960E94B813CE0101960E94E205ED
:10213000112371F066EB73E0CE0101960E9439061F
:10214000CE0101960E94B813CE0101960E94E205CD
:10215000002371F06BEB73E0CE0101960E9439060B
:10216000CE0101960E94B813CE0101960E94E205AD
:1021700082E00E94A507892BD9F385E690E1909330
:10218000080180930701809169008C7F809369002A
:10219000E89A83B7817F846083BF83B7816083BF00
:1021A00083B7816083BF889583B78E7F83BF83B7F2
:1021B0008E7F83BFFF2071F060EC73E0CE0101964B
:1021C0000E943906CE0101960E94B813CE010196F5
:1021D0000E94E205112371F065EC73E0CE010196D7
:1021E0000E943906CE0101960E94B813CE010196D5
:1021F0000E94E205002371F06AEC73E0CE010196C3
:102200000E943906CE0101960E94B813CE010196B4
:102210000E94E20526960FB6F894DEBF0FBECDBF32
:10222000DF91CF911F910F91FF9008958F929F9210
:10223000AF92BF92CF92DF92EF92FF920F931F93D4
:10224000CF93DF93CDB7DEB72E970FB6F894DEBFEE
:102250000FBECDBF4C010E94361A10920906109293
:10226000080610920B0610920A0681E08093100671
:10227000B4018CEF95E00E9455066CE374E08CEF9E
:1022800095E00E9463066FEC73E0C4010E94530561
:102290008111109265056CE374E0C4010E94A005F1
:1022A00061E087E00E94CE0764EF71E080E090E09B
:1022B0000E94C10810E0612F70E0F40184819581D3
:1022C0006817790758F4C4010E944105FC01608138
:1022D00084EC95E00E94771B1F5FEDCF0E94FB0806
:1022E0007B018C0120E030E0A9016F83F88609872B
:1022F0001A872B873C874D875E8784EC95E00E9488
:10230000CB1B892BF1F40E94FB085B016C019B0144
:10231000A60160E070E080E090E0AF80B884C984FE
:10232000DA84EB84FC840D851E850E94182B2838E6
:102330003341410551056105710581059105E9F2BA
:10234000E4F284EC95E00E94CB1B892BC1F160E0A4
:10235000CE0101960E94531AF40180819181009769
:10236000B1F069817A816115710579F042815381FB
:102370002D813E814217530740F00E943E2D8D81F2
:102380009E81F4019583848313C00E94CA2B8981A6
:102390009A81F401918380838B819C8193838283D2
:1023A0008D819E81958384831A8219821C821B826F
:1023B0001E821D82CE0101960E94E20507C041E106
:1023C00050E067ED73E0C4010E94C10560E087E062
:1023D0000E94CE0764EF71E080E090E00E94C108A7
:1023E000C4010E94B004F12C0F2D10E0F40184818F
:1023F00095810817190798F4B801C4010E94410596
:10240000FC0180818A3009F445C0B801C4010E94F2
:102410004105FC0180818D30E9F1F394E5CFC401E1
:102420000E94B004B4018CEF95E00E9455068091A3
:102430006505882391F0B401CE0101960E941F0624
:10244000CE0101960E94411ABC0184EC95E00E94E5
:102450005506CE0101960E94E2050E94461868EEDC
:1024600073E080E090E00E94C1080E94361A2E9628
:102470000FB6F894DEBF0FBECDBFDF91CF911F9195
:102480000F91FF90EF90DF90CF90BF90AF909F9013
:102490008F9008954FEF5FEFB801C4010E940F05C0
:1024A000BCCF8F929F92AF92BF92CF92DF92EF926A
:1024B000FF920F931F93CF93DF936C01EB014901C0
:1024C0005A010E94361A10920906109208061092BC
:1024D0000B0610920A0681E090E090930F0680931D
:1024E0000E0690930D0680930C068093100669EEFD
:1024F00073E08CEF95E00E94A307C6010E94021AC8
:1025000067EF8CEF95E00E94E30C63E48CEF95E0BD
:102510000E944E066CE374E08CEF95E00E94630627
:1025200061EF73E08CEF95E00E94A307CE010E945B
:10253000021A67EF8CEF95E00E94E30C63E48CEFE6
:1025400095E00E944E066CE374E08CEF95E00E94EB
:10255000630682E08093100621E0B501A4018CEFB0
:1025600095E00E94C10667EF8CEF95E00E94E30CB6
:1025700063E48CEF95E00E944E06EE24E394F12C88
:102580000CE010E02CE030E044E150E062E770E065
:102590008CEF95E00E94870F27E030E041E066E194
:1025A00070E08DE790E00E944D1927E030E042E0B6
:1025B00066E170E082E790E00E944D19B601DD0C03
:1025C000880B990B0E9420289B01AC01C501B40126
:1025D0000E94852A18163CF401E010E020E130E06A
:1025E00040EC55E017C0BE01DD0F880B990B0E942F
:1025F00020289B01AC01C501B4010E94852A01E09D
:1026000010E020E130E018161CF440EB55E002C069
:1026100040EA55E06CE070E082E790E00E94C91863
:1026200080916505882361F000E010E028E030E04B
:1026300048E955E066E170E084E790E00E94C9183F
:10264000DF91CF911F910F91FF90EF90DF90CF908E
:10265000BF90AF909F908F900C944618CF93DF93CC
:1026600081E0809394058AE58093B60510929505E4
:102670001092B70567E088EB95E00E94410480E086
:102680000E949F17809193058111FCCF81E0809378
:102690009305809392059FEF90939105109290057A
:1026A00092E090938F0580936E0580916E05846B08
:1026B00080936E0580916D05813061F410926D05F7
:1026C00080916E058093BB008091BC0083FDF8CFA4
:1026D00085EC01C085EE8093BC008091930581302C
:1026E000E1F380919005833018F48091900501C04A
:1026F00083E0AFE6B5E024EF34E0F9019E2F921BB2
:10270000981718F49D919193F9CF1092A704809394
:10271000A60488EB95E00E94F503EC0188EB95E0B8
:102720000E94F50360E070E0782F6C2B7D2B80E039
:1027300090E00E941E282AE037ED43EA5CE30E9405
:102740007F2823E333E948E853E40E94772920E017
:1027500030E040E251E40E947F280E948A2A20E073
:1027600030E040E251E40E94E429DF91CF910895E6
:10277000CF92DF92EF92FF920F931F93CF93DF934D
:10278000CDB7DEB769970FB6F894DEBF0FBECDBFE9
:102790008C016CE374E00E945305811151C36DE319
:1027A00074E0C8010E94530581114AC369EF73E0C8
:1027B000C8010E945305811143C3C8010E94B0049F
:1027C000D80114968D919C911597892B39F0D801D9
:1027D000ED91FC91309711F0208101C020E06EE373
:1027E00074E0CE014396298F0E943906F801848156
:1027F0009581298D0297C0F041E050E060E070E0E3
:10280000C8010E940F05298D243689F00CF087C27B
:10281000243409F4B1C00CF43FC2283409F47EC05A
:10282000233509F497C025C2243609F06FC067E04C
:1028300074E0CE0101960E943906CE0101960E94F5
:102840001611CE0101960E94E2056FE074E0CE0100
:1028500007960E9439066BE174E0CE0101960E9452
:1028600039064B855C856F817885CE0101960E9483
:102870007205811104C0CE0101960E94AF05BE0110
:102880006F5F7F4FCE010D960E941F06CE010D9601
:102890000E941611CE010D960E94E205CE0101960E
:1028A0000E94E205CE0107960E94E20564E274E010
:1028B000CE0107960E94390669E274E0CE010196C6
:1028C0000E9439064B855C856F817885CE01019623
:1028D0000E947205811104C0CE0101960E94AF05CD
:1028E000BE016F5F7F4FCE010D960E941F06CE0185
:1028F0000D960E941611CE010D960E94E205CE01A2
:1029000001960E94E205CE010796AEC125360CF075
:1029100006C2243489F1283409F0BEC1D8011496C6
:102920008D919C911597892B09F4A8C160E070E006
:10293000C8010E944105FC0180818F3309F49EC1CA
:10294000F801808191810E94AA27909304018093CD
:1029500003018FC1D80114968D919C911597029710
:1029600008F487C1B801CE0101960E941F06CE016E
:1029700001960E94161176C160E070E0C8010E94C5
:102980004105DC01EC918E2FEE0F990BAA0BBB0BCE
:10299000FC01F097E930F10508F06BC1EC5CFF4FEA
:1029A0000C94122B61E070E0C8010E944105FC010B
:1029B0008081803331F48EEA0E94FC1710920B0163
:1029C00058C161E070E0C8010E944105DC018C91B2
:1029D000813339F48FEA0E94FC1781E080930B0168
:1029E00048C161E070E0C8010E944105FC0180819E
:1029F0008F3309F03EC180910B0167E374E084ECF2
:102A000095E00E94A30735C161E070E0C8010E9413
:102A10004105DC018C91803371F41092AC048091FB
:102A20001706813011F01FEC01C01FE981E80E94F8
:102A3000FC17812F10C061E070E0C8010E944105C1
:102A4000FC018081813351F481E08093AC0481E802
:102A50000E94FC1780E00E94FC170BC161E070E04F
:102A6000C8010E944105DC018C918F3309F001C13E
:102A70008091AC045BC061E070E0C8010E94410538
:102A8000FC0180818033A1F46FEC73E0CE010196EC
:102A90000E943906CE0101960E941611CE010196C0
:102AA0000E94E20560E084E00E94CE071092650576
:102AB00061E070E0C8010E944105DC018C91813326
:102AC00009F0D7C061E084E015C061E070E0C801A2
:102AD0000E944105FC018081803379F4109202014B
:102AE00060E08FE00E94CE0760E080E10E94CE07A8
:102AF00060E081E10E94CE07BCC061E070E0C801E7
:102B00000E944105DC018C91813321F481E08093A6
:102B10000201AFC061E070E0C8010E944105FC0104
:102B200080818F3309F0A5C080910201811165CFAA
:102B30006BE374E064CF61E070E0C8010E9441057E
:102B4000DC018C91803371F40E94831A64EF71E090
:102B500080E090E00E94C10883E00E94FE0710928E
:102B6000AD0487C061E070E0C8010E944105FC012E
:102B70008081813301F50E94831A6BE470E080E06C
:102B800090E00E94C10883E00E94FE076AEF70E0B7
:102B900080E090E00E94C1080E94831A6BE470E01C
:102BA00080E090E00E94C10883E00E94FE0781E07F
:102BB0008093AD045EC06FE374E0C8010E945305CA
:102BC000882309F456C08091AD04B0CF40E050E0B6
:102BD0006EE374E0CE0143960E94C10580910B0123
:102BE000882319F063EA73E002C067E274E0CE0163
:102BF00043960E94A0058091AC04882319F063EAF3
:102C000073E002C067E274E0CE0143960E94A00523
:102C100080910201882319F063EA73E002C067E241
:102C200074E0CE0143960E94A0058091AD048823F4
:102C300019F063EA73E002C067E274E0CE014396E4
:102C40000E94A005BE016D5E7F4FCE0101960E94DD
:102C50001F06CE0101960E94411ABC0184EC95E04A
:102C60000E945506CE0101960E94E20502C00E9414
:102C70007310CE0143960E94E205E2C060E070E06E
:102C8000C8010E944105DC018C918F3391F760915E
:102C900003017091040116C0233459F7D80114962A
:102CA0008D919C911597892B39F560E070E0C801F2
:102CB0000E944105DC018C918F33D9F660910501AA
:102CC000709106014AE0CE0101960E94E705BE011F
:102CD0006F5F7F4FCE0107960E941F06CE010796B9
:102CE0000E94411ABC0184EC95E00E945506CE0179
:102CF00007960E94E205B6CF60E070E0C8010E942E
:102D00004105FC0180818F3381F2F801808191813E
:102D10000E94AA279093060180930501AACF21372C
:102D200019F562E374E0C8010E945305882309F491
:102D3000A0CF109265056FEC73E0CE0101960E9462
:102D40003906CE0101960E941611CE0101960E940D
:102D5000E20560E084E00E94CE0764E670E080E077
:102D600090E00E94C108AECE2237E4F4253609F087
:102D700080CF00ED15E0F8016491611104C081E09D
:102D80008093650576CFE091C405F091C50501906B
:102D9000F081E02D84EC95E009950F5F1F4F892BA2
:102DA00051F7EDCF2237A1F40E942E13AB01BC01E5
:102DB0004093AE045093AF046093B0047093B10499
:102DC00021E084EC95E00E94C1066CE374E017CE2C
:102DD000243709F04ECFC090AE04D090AF04E090FD
:102DE000B004F090B1048091030190910401BC0102
:102DF000990F880B990B0E9420289B01AC01C701F9
:102E0000B6010E94852A18161CF46BEF73E0F7CD0B
:102E10008091050190910601BC01990F880B990BD7
:102E20000E9420289B01AC01C701B6010E9419280D
:102E300087FF03C06FEF73E0E2CD63E074E0DFCDA6
:102E400069960FB6F894DEBF0FBECDBFDF91CF916C
:102E50001F910F91FF90EF90DF90CF900895909188
:102E60001D06992339F08EBD00000DB407FEFDCF7D
:102E70008EB5089528E030E040E8E0912006F0911A
:102E80002106508190912706909595239083E0919B
:102E90001E06F0911F0690912606542F582319F014
:102EA0005081952B03C05081909595239083E0919C
:102EB0002006F0912106508190912706952B908352
:102EC000469521503109C9F608950F931F930E942A
:102ED000FB086093CC057093CD058093CE0590934D
:102EE000CF05E091C405F091C5050284F385E02D7E
:102EF00084EC95E0099597FF1FC00E94FB080091A4
:102F0000CC051091CD052091CE053091CF05DC0187
:102F1000CB01801B910BA20BB30B0091C805109144
:102F2000C9052091CA053091CB0580179107A207EA
:102F3000B307B8F28FEF9FEF1F910F910895382FCD
:102F40002091B7059091B605213208F049C08091D3
:102F500093058111FCCF42E0409393053093920595
:102F60003FEF309391051092900520938F05A6E9CD
:102F7000B5E04FE655E0FA013E2F341B321718F446
:102F80003D913193F9CF10926E0520916E05990F06
:102F9000922B90936E0590916D05913061F4109293
:102FA0006D0590916E059093BB009091BC0093FDD0
:102FB000F8CF95EC01C095EE9093BC0090919305ED
:102FC0009230E1F3909191059F3F79F080919105C6
:102FD000803241F080919105803331F084E005C06A
:102FE00081E003C082E001C083E010929505109259
:102FF000B705109294050895CF93C82F80911806B5
:103000008F3F59F1E0912206F09123068081909143
:103010002806982B9083E0912406F09125062081C4
:1030200090912906909592239083E0912206F09149
:1030300023062081909128069095922390838C2FCF
:103040000E942F17E0912206F09123069081809133
:103050002806892B8083CF9108958091160691E0F0
:10306000909394058093B605109295051092B7053C
:1030700060E088EB95E00E9441046C2F88EB95E0BE
:103080000E94410481E0CF910C949F17EF92FF9230
:103090000F931F93CF93DF9381E20E94FC1780E090
:1030A0000E94FC178FE70E94FC1782E20E94FC1727
:1030B00080E00E94FC1783E00E94FC1780911806B4
:1030C0008F3F79F1E0912206F09123069081809163
:1030D0002806892B8083E0912406F09125069081B3
:1030E00080912906892B8083E0912206F0912306A6
:1030F000908180912806809589238083CDE0D1E05E
:1031000089910E942F1783E0CD30D807C9F7E0914D
:103110002206F0912306908180912806892B8083D6
:1031200031C0F090B8008CE08093B800CDE0D1E0E1
:10313000EE24E39480911606E09294058093B60500
:10314000109295051092B70560E488EB95E00E9417
:10315000410400E010E0FE01E00FF11F608188EB08
:1031600095E00E9441040F5F1F4F0031110599F750
:1031700081E00E949F17609683E0CD30D807D1F69A
:10318000F092B800DF91CF911F910F91FF90EF90D7
:1031900008953F924F925F926F927F928F929F928B
:1031A000AF92BF92CF92DF92EF92FF920F931F9355
:1031B000CF93DF9300D000D000D0CDB7DEB73C0175
:1031C0002B014A015901C901079697FD07969C01F9
:1031D00093E0359527959A95E1F73A832983C12C99
:1031E000D12C312CE12CF12CC701840D951D9C8331
:1031F0008B831E821D82ED81FE81EA15FB054CF555
:103200008D819E8187709927892B11F0330C0EC018
:10321000ED81FE81F7FD379683E0F595E7958A9578
:10322000E1F7EC0DFD1DE80DF91D349037FE0BC0E4
:1032300098014B815C816D817E81660D771D8CEFDD
:1032400095E00E94AF0F8D819E8101969E838D83B4
:10325000D2CFFFEFEF1AFF0A29813A81C20ED31EA7
:1032600038E0E316F10409F0BFCF26960FB6F894C4
:10327000DEBF0FBECDBFDF91CF911F910F91FF90A9
:10328000EF90DF90CF90BF90AF909F908F907F9006
:103290006F905F904F903F9008952F923F924F9282
:1032A0005F926F927F928F929F92AF92BF92CF92D6
:1032B000DF92EF92FF920F931F93CF93DF9300D093
:1032C00000D0CDB7DEB76C015B014901790123E085
:1032D000E20EF11C80E090E0E2E0F0E0FC83EB83A2
:1032E0002CEF222E33243A9466246A94762CF42F01
:1032F000F170F98342704A832C012FEF421A520A6F
:10330000C70188199909680E791E3981332311F193
:103310002B813C81220F331F2F5F3F4F280D391D1A
:1033200001E010E0A5018B819C81481B590BB6017F
:10333000640D751D8CEF95E00E94A30F9701A50108
:10334000441955096B817C816C0D7D1D8CEF95E0D6
:103350000E94A30F9A81992319F12B813C81220F9E
:10336000331F2F5F3F4F280D391D01E010E0A501ED
:10337000EB81FC814E1B5F0BB601641975098CEF64
:1033800095E00E94A30F9701A50144195509B601C4
:103390008B819C81681B790B8CEF95E00E94A30FB9
:1033A000EB81FC814E165F06B4F477FC0AC022E084
:1033B000220E311C620C731C81E090E09C838B8395
:1033C00004C0E2E0F0E0FC83EB83F2E0EF0EF11CDE
:1033D00081E090E091CF0F900F900F900F90DF91D0
:1033E000CF911F910F91FF90EF90DF90CF90BF9002
:1033F000AF909F908F907F906F905F904F903F9095
:103400002F900895CF92DF92EF92FF92CF93DF93A8
:103410006C01990FEE08FF08F7FE1BC06DE28CEF00
:1034200095E00E944E06EC0144275527BA014C193D
:103430005D096E097F092AE08CEF95E00E9478060D
:103440008C0F9D1FDF91CF91FF90EF90DF90CF9079
:1034500008952AE0B701A6018CEF95E0DF91CF91A6
:10346000FF90EF90DF90CF900C94780680E092E090
:10347000EDE0F1E0DF019C011D9221503040E1F7C9
:103480000895CF93DF93EC0142E050E06CE374E0E9
:103490000E947205811103C0CE010E94AF05CE01CA
:1034A000DF91CF910895EF92FF920F931F93CF93E7
:1034B000DF9300D0CDB7DEB78C01E62E6EE374E06B
:1034C0000E9439060E9465170E2C000CFF0897FD1C
:1034D00010C08E159F0569F089831A8241E050E083
:1034E000BE016F5F7F4FC8010E9472050E94651781
:1034F000EECFC8010F900F90DF91CF911F910F91E8
:10350000FF90EF900895CF9380910C01833021F0CC
:103510008F3F09F0D7C004C0EBEDF5E0C49174C053
:1035200083E080930C01EBEDF5E0E491EF3F09F4CB
:10353000C9C0E13011F1E23009F442C0E11163C0C9
:1035400014BC15BC84B5826084BD85B5816085BD21
:10355000E3EFF5E0E491F0E0EE0FFF1FE452FA4FE5
:10356000859194919093530680935206E7E0F6E09C
:10357000E491E0935106C0E049C01092800010929F
:10358000810080918100886080938100809181001A
:10359000816080938100E3EFF5E0E491F0E0EE0FCD
:1035A000FF1FE452FA4F85919491909350068093B7
:1035B0004F06E7E0F6E0E491E0934E06C1E026C056
:1035C0001092B0001092B1008091B00082608093A0
:1035D000B0008091B10081608093B100E3EFF5E02D
:1035E000E491F0E0EE0FFF1FE452FA4F85919491C1
:1035F0009093680580936705E7E0F6E0E491E09337
:103600006605C2E003C0CE2FC7FD5CC061E083E069
:103610000E948508CC23C1F1C23009F44CC0C130EE
:10362000E9F480918100887F8360809381008FEA34
:1036300096E090938900809388008FEF9FEFDC01E4
:103640008093540690935506A0935606B093570660
:1036500080916F00826080936F0034C0C23091F51A
:103660008FEA8093B3008FEF9FEFDC0180936905B1
:1036700090936A05A0936B05B0936C0580917000E0
:103680008260809370001EC085B5887F856085BD8F
:103690008AE687BD8FEF9FEFDC01809358069093F9
:1036A0005906A0935A06B0935B0680916E00826023
:1036B00080936E0007C08091B10087608093B10055
:1036C0008AE6CFCFCF910895CF93DF93BC018CEFE3
:1036D00095E00E946306EC016CE374E08CEF95E0EA
:1036E0000E9463068C0F9D1FDF91CF9108951F9359
:1036F000CF93DF93DC015C962D913C915D97211572
:10370000310539F481E090E013969C938E931297E3
:103710003DC05196ED91FC91529750969C915097D7
:10372000892F80951FB75E964C915E9741FB772756
:1037300070F941FD6095F8944081772311F0492B91
:1037400001C048234083E9012197F1F748E0508107
:1037500060FF02C0592B01C058235083E901219713
:10376000F1F76695415099F7772321F090818923ED
:10377000808303C08081982B90831FBF5C968D91BE
:103780009C915D970197F1F721E030E0C901DF914D
:10379000CF911F9108952091AA043091AB0428176E
:1037A000390771F48091A9042091A80490E0805C0D
:1037B0009F4F821B910960E470E00E94DC2A08950B
:1037C00080E090E008952091AA043091AB0428177E
:1037D0003907B9F49091A8048091A904981789F049
:1037E000E091A804F0E0EC54FB4F80812091A80404
:1037F00030E02F5F3F4F2F7333272093A80490E0D2
:1038000008958FEF9FEF08950F931F93CF93DF934A
:10381000DC0155968C915597823071F0833009F117
:10382000813009F08CC01496ED91FC911597E41B42
:10383000F50BE21BF30B20C01496ED91FC9115974C
:10384000CF01861B970BBC01615071091696ED9153
:10385000FC911797CF01841B950BAC01421B530BB6
:103860006EC01696ED91FC911797CF01861B970BB2
:10387000BC0161507109FA0177FD1BC116968D914B
:103880009C911797681779070CF013C1F7FF04C0D4
:103890002E0F3F1FE0E0F0E014968D919C9115975C
:1038A000AF01420F531F841795071CF49C012E1B78
:1038B0003F0B121613060CF0FCC0CB0177FD0796E8
:1038C00043E0959587954A95E1F79695982F882737
:1038D00097958795E80FF91FE35FFE4F677077278D
:1038E00081E090E001C0880F6A95EAF7482F013027
:1038F000110541F088F00230110509F0DAC02E0FF1
:103900003F1F15C02E0F3F1FE217F30709F4D1C068
:103910008081842B8193F8CF80952E0F3F1FE21773
:10392000F30709F4C6C0908198239193F8CFE2176A
:10393000F30709F4BEC0808184278193F8CF77FD17
:10394000B8C014968D919C911597681779070CF063
:10395000B0C057FF04C0240F351F40E050E016965A
:103960008D919C911797FA01E20FF31F8E179F0715
:103970001CF49C01241B350B121613060CF099C085
:10398000A22F842F86958695869590E8899F600D55
:10399000711D1124FB01E35FFE4F4770A9F198E010
:1039A000941B492F50E0EA01C559DC4F8881291743
:1039B00090F4421B51092FEF30E002C03595279556
:1039C0004A95E2F782230130110541F068F0023098
:1039D000110589F06EC00130110519F42081822B88
:1039E0000CC00130110520F480952081822305C090
:1039F0000230110531F4208182278083A91708F451
:103A000058C0A91BE058FF4FA83048F102301105FB
:103A100059F4EF018A2F988190959883C058DF4F11
:103A200088508830C0F730C081E00130110509F0BE
:103A300080E08195EF019A2F8883C058DF4F98501E
:103A40009830D0F788EF8A0F86958695869590E80E
:103A5000899FE00DF11D1124E058FF4FA770AA23A4
:103A600041F1B0E0AD59BC4F8C910130110529F006
:103A700038F002301105D1F01CC09081892B18C09C
:103A800080959081892314C088EF8A0F869586954A
:103A9000869590E8899FE00DF11D1124E058FF4FB5
:103AA000A77039F0B0E0AD59BC4F8C919081892757
:103AB0008083DF91CF911F910F9108950F931F93F2
:103AC000CF93DF93DC01FB0155968C9155978230A3
:103AD00081F0833019F1813051F514968D919C91CC
:103AE0001597BC01641B750BAB0141505109BF0117
:103AF00081C014966D917C911597CB018E1B9F0B05
:103B0000FC0116968D919C911797BC01641B750B57
:103B1000AB0141505109E21BF30B09C016966D91A0
:103B20007C9117976E1B7F0B621B730B63C057FD55
:103B30001CC116968D919C911797481759070CF048
:103B400014C1F7FF04C02E0F3F1FE0E0F0E0149611
:103B50008D919C911597BF01620F731F8617970770
:103B60001CF49C012E1B3F0B121613060CF0FDC01B
:103B7000CA0157FD079663E0959587956A95E1F729
:103B80009695982F882797958795E80FF91FE35FFB
:103B9000FE4F4770552781E090E001C0880F4A959D
:103BA000EAF7482F0130110541F088F00230110585
:103BB00009F0DBC02E0F3F1F15C02E0F3F1FE2176D
:103BC000F30709F4D2C08081842B8193F8CF8095CC
:103BD0002E0F3F1FE217F30709F4C7C09081982307
:103BE0009193F8CFE217F30709F4BFC080818427CF
:103BF0008193F8CF57FDB9C014968D919C9115977C
:103C0000481759070CF0B1C077FF04C0260F371FC3
:103C100060E070E016968D919C911797FB01E20F82
:103C2000F31F8E179F071CF49C01261B370B1216DF
:103C300013060CF09AC0A22F862F8695869586953E
:103C400090E8899F400D511D1124FA01E35FFE4F5A
:103C50006770A9F198E0961B492F50E0EA01C55919
:103C6000DC4F8881291790F4421B51092FEF30E077
:103C700002C0359527954A95E2F782230130110558
:103C800041F068F00230110589F06FC00130110574
:103C900019F42081822B0CC00130110520F480958D
:103CA0002081822305C00230110531F42081822752
:103CB0008083A91708F459C0A91BE058FF4FA8300A
:103CC00048F10230110559F4EF018A2F988190953F
:103CD0009883C058DF4F88508830C0F731C081E0EA
:103CE0000130110509F080E08195EF019A2F88835A
:103CF000C058DF4F98509830D0F788EF8A0F8695DC
:103D00008695869560E8869FE00DF11D1124E058A8
:103D1000FF4FA770AA2349F1B0E0AD59BC4F8C9179
:103D20000130110529F038F002301105D9F01DC01D
:103D30009081892B03C0809590818923808315C051
:103D400088EF8A0F86958695869570E8879FE00DA7
:103D5000F11D1124E058FF4FA77039F0B0E0AD59C4
:103D6000BC4F8C9190818927E9CFDF91CF911F9132
:103D70000F910895FC0177FD9AC0808591856817A1
:103D800079070CF094C057FD92C08285938548173F
:103D900059070CF08CC08589823009F07CC0848181
:103DA0009581DC01A61BB70BBD01615071098681AD
:103DB0009781FC01E41BF50BAF01415051090AC08A
:103DC000813041F484819581841B950BAB01BC014A
:103DD000615071092130310529F008F12230310597
:103DE000E1F10895FA0157FD3796A3E0F595E795BF
:103DF000AA95E1F7F695FE2FEE27F795E7956E0F5A
:103E00007F1FFB01E35FFE4F4770552781E090E085
:103E100001C0880F4A95EAF79081892B3AC0FA01D0
:103E200057FD379623E0F595E7952A95E1F7F69546
:103E3000FE2FEE27F795E7956E0F7F1FFB01E35FDF
:103E4000FE4F4770552781E090E001C0880F4A95EA
:103E5000EAF78095908189231CC0FA0157FD3796B7
:103E600083E0F595E7958A95E1F7F695FE2FEE2725
:103E7000F795E7956E0F7F1FFB01E35FFE4F4770DD
:103E8000552781E090E001C0880F4A95EAF79081BC
:103E9000892780830895833009F092CF86819781A6
:103EA000861B970BBA01AC014150510993CF08957D
:103EB0000895FC016370658B84819581268137812B
:103EC000613039F0633029F091878087338722870A
:103ED0000895318720879387828708951F920F92D4
:103EE0000FB60F9211242F933F934F935F936F93CD
:103EF0007F938F939F93AF93BF93EF93FF93E09143
:103F0000AA04F091AB04309709F451C0968DA685B0
:103F1000B785858591FF04C09C91892329F447C00A
:103F20009C91892309F043C0A389B4899C91858918
:103F3000809589238C93868997890197F1F7608D05
:103F4000718DA685B785558538E020E0CB010197B6
:103F5000F1F7822F90E095958795282F4C91452376
:103F600009F02068315091F7868D81FD2095809170
:103F7000A90490E001968F7399273091A80438170F
:103F800049F0A091A904B0E0AC54BB4F2C938093AE
:103F9000A90403C0868D8160868F828D938D0197E1
:103FA000F1F7A389B4899C918589892B8C93FF9122
:103FB000EF91BF91AF919F918F917F916F915F91A1
:103FC0004F913F912F910F900FBE0F901F9018951A
:103FD000CF92DF92EF92FF920E94FB086B017C016F
:103FE0008091F2050E94A50721E0892B09F420E0C9
:103FF0002093F4058091F305811104C081E08227AC
:104000008093F4052091F4058091F505281741F07F
:10401000C092F805D092F905E092FA05F092FB05FE
:104020008091F8059091F905A091FA05B091FB05F2
:10403000B701A601481B590B6A0B7B0BDB01CA01B8
:10404000C090E605D090E705E090E805F090E9051E
:10405000C416D506E606F70694F43091E505231755
:1040600071F02093E505222351F04091F60550911F
:10407000F7054F5F5F4F5093F7054093F60530917A
:10408000E505311112C0C090EA05D090EB05E09033
:10409000EC05F090ED05C816D906EA06FB060CF50E
:1040A0008091F6059091F70514C0C090EE05D09070
:1040B000EF05E090F005F090F105C816D906EA0684
:1040C000FB067CF48091F6059091F705919581951A
:1040D00091099093E4058093E3051092F7051092FF
:1040E000F6052093F505FF90EF90DF90CF900895AF
:1040F000CF93DF93CDB7DEB760970FB6F894DEBFEE
:104100000FBECDBF789484B5826084BD84B58160D4
:1041100084BD85B5826085BD85B5816085BD809192
:104120006E00816080936E0010928100809181000A
:104130008260809381008091810081608093810002
:10414000809180008160809380008091B1008460C4
:104150008093B1008091B00081608093B000809125
:104160007A00846080937A0080917A0082608093E4
:104170007A0080917A00816080937A0080917A0041
:10418000806880937A001092C1008AE090E0A0E0FD
:10419000B0E08093E6059093E705A093E805B0931F
:1041A000E90584EF91E0A0E0B0E08093EE05909304
:1041B000EF05A093F005B093F10580E991E0A0E050
:1041C000B0E08093EA059093EB05A093EC05B093E3
:1041D000ED0561E084E00E94850861E087E00E94CF
:1041E000850861E083E00E94850861E08FE00E941D
:1041F000850861E080E10E94850861E081E10E941C
:10420000850860E082E00E94850860E08FE00E94FF
:10421000CE0760E080E10E94CE0760E081E10E946D
:10422000CE0760E087E00E94CE0760E084E00E9455
:10423000CE0782E0809317068CE380931606809168
:1042400018068F3F09F4BDC061E080911A060E94F4
:10425000850861E080911C060E94850880911C06FB
:10426000082E000C990BFC01E051FA4FE491F0E0AC
:10427000EE0FFF1FE452FA4F25913491309323063D
:1042800020932206FC01EC5FF94FE491E0932806AD
:1042900080911A06082E000C990BFC01E051FA4F90
:1042A000E491F0E0EE0FFF1FE452FA4F25913491B4
:1042B0003093250620932406FC01EC5FF94FE4912E
:1042C000E093290680911D0681113EC061E0809136
:1042D00018060E94850861E0809119060E948508F1
:1042E00080911906082E000C990BFC01E051FA4F41
:1042F000E491F0E0EE0FFF1FE452FA4F2591349164
:104300003093210620932006FC01EC5FF94FE491E5
:10431000E093270680911806082E000C990BFC01EB
:10432000E051FA4FE491F0E0EE0FFF1FE452FA4F34
:104330002591349130931F0620931E06FC01EC5FFB
:10434000F94FE491E093260680911D06882309F435
:104350005FC01FB7F8948091B204811127C0EAEFC3
:10436000F5E08491EEE0F6E09491E82FF0E0EE0FB6
:10437000FF1FE658FF4FA591B491EC91E92321F47A
:1043800061E08AE00E94CE0761E08AE00E94850831
:104390008CB580618CBD8CB580648CBD61E08DE096
:1043A0000E94850861E08BE00E9485088091B2043C
:1043B0008F5F8093B2041FBF80E58CBD81E08DBD0F
:1043C00027C01092A7041092A6041092950510928F
:1043D000B7051092930581E08093920510926D05C8
:1043E00061E082E10E94CE0761E083E10E94CE0796
:1043F0008091B9008E7F8093B9008091B9008D7F44
:104400008093B90088E48093B80085E48093BC0071
:104410008EEA0E94FC1785ED0E94FC1780E80E943E
:10442000FC1788EA0E94FC178FE10E94FC1783EDBD
:104430000E94FC1780E00E94FC1780E40E94FC1799
:104440008DE80E94FC1784E10E94FC1780E20E9424
:10445000FC1780E00E94FC1781EA0E94FC1788ECA0
:104460000E94FC178AED0E94FC1782E00E94FC1754
:1044700081E80E94FC178FE80E94FC1789ED0E94DA
:10448000FC1781EF0E94FC178BED0E94FC1780E463
:104490000E94FC1784EA0E94FC1786EA0E94FC171F
:1044A0008EE20E94FC178FEA0E94FC170E944618B9
:1044B00064EF71E080E090E00E94C1080E94361A2B
:1044C0000E944618609105017091060120E030E0DD
:1044D000A90180910301909104010E945112109250
:1044E000DF051092DE051092DD051092DC051092BA
:1044F000DB051092DA0585E690E09093E105809364
:10450000E0059091D005963108F057C021E230E0E7
:104510003093DB052093DA0523E630E03093DD05A8
:104520002093DC0522E430E03093DF052093DE05A4
:1045300020916800983050F031E09E3008F430E06F
:1045400081E001C0880F3A95EAF701C084E0822B30
:1045500080936800983038F09E3040F0963148F0F3
:1045600020E030E008C02DE630E005C02BE630E06A
:1045700002C02CE630E03093D8052093D705983060
:1045800030F481E001C0880F9A95EAF70EC0292F18
:1045900030E09E3018F42850310902C02E50310905
:1045A00081E001C0880F2A95EAF78093D9058091B0
:1045B000E0059091E1050197F1F78091DE0590917A
:1045C000DF05892B49F1E091AA04F091AB0425E0C5
:1045D000E43CF20709F1309739F0A389B4899C9142
:1045E0008589809589238C938091E2058E7F8093C5
:1045F000E2051092A9041092A80484EC95E090932F
:10460000AB048093AA04E091D705F091D80590817E
:104610008091D905892B808322242394312CAA24CC
:10462000A394B12CC090AE04D090AF04E090B0043D
:10463000F090B1046091030170910401072E000C09
:10464000880B990B0E9420289B01AC01C701B60181
:104650000E94852A181694F481E08093010110923B
:1046600000011092B30480910201882309F442C032
:1046700061E08FE00E94CE0760E035C080910501C7
:1046800090910601BC01990F880B990B0E9420287C
:104690009B01AC01C701B6010E94192887FF15C014
:1046A00081E0809300011092B30480930101809116
:1046B00002018823F9F060E08FE00E94CE0760E0FD
:1046C00080E10E94CE0761E012C081E08093B304D4
:1046D0001092010180910201882361F060E08FE077
:1046E0000E94CE0761E080E10E94CE0760E081E198
:1046F0000E94CE078091B304882309F46DC0809195
:104700000101811169C080910001811165C0809112
:10471000AD04882309F459C00E94FB086B017C0199
:104720000E94831A0E94FB08DC01CB018C199D09B1
:10473000AE09BF0981319742A105B10508F093C2C6
:1047400082E00E94A507019709F08DC20E942E13F6
:104750009B01AC01609105017091060180910301FC
:10476000909104010E94511284EC95E00E94CB1BB1
:10477000892BC1F26BE3CE0107960E94531ABE014A
:10478000695F7F4FCE0101960E941F06CE01019600
:104790000E94B813CE0101960E94E205CE01079651
:1047A0000E94E205BFCF1092F7051092F605109215
:1047B000E4051092E3051092E5051092F8051092B9
:1047C000F9051092FA051092FB0581E08093010132
:1047D0001092B304809300010E942E139B01AC0140
:1047E0006093AE047093AF048093B0049093B104CF
:1047F000609105017091060180910301909104017F
:104800000E9451120E94FB082B013C010E94FB08F0
:10481000DC01CB0184199509A609B70985369105F4
:10482000A105B10508F017C20E94E81F8091E305B9
:104830009091E405019709F0EEC10E94361A10929A
:1048400009061092080610920B0610920A0681E0E3
:10485000809310068AE2E82E86E0F82E00E010E051
:104860000115110549F410920D0610920C063092B4
:104870000F0620920E0608C030920D0620920C06FC
:1048800010920F0610920E06B7018CEF95E00E9471
:10489000550602301105B9F103301105B9F10130A7
:1048A000110541F084E00E94A507892B39F083E7C8
:1048B00093E006C0809102018111F9CF8CE793E06B
:1048C0000E94641B0F5F1F4F96E0E90EF11C04303D
:1048D000110531F60E9446181092F7051092F60560
:1048E0001092E4051092E3051092E5051092F80588
:1048F0001092F9051092FA051092FB05C12CD12CEB
:1049000000E010E00EC08091AD04D6CF8091AC04E1
:10491000D3CF0E94E81F8091E3059091E4050197B1
:1049200039F08091E3059091E405019691F794C0E8
:104930000E94361A109209061092080610920B0671
:1049400010920A06053011051CF40F5F1F4F02C0BC
:1049500000E010E0C8010497029728F4680123E002
:10496000C21AD10802C0C12CD12C26E02C9DC00156
:104970002D9D900D11249E878D877601812C912C81
:10498000C6010396988B8F878F8598898E159F0512
:104990000CF44DC0E016F10649F410920D06109289
:1049A0000C06B0920F06A0920E0608C0B0920D063B
:1049B000A0920C0610920F0610920E066D857E8551
:1049C000680D791D665D794F8CEF95E00E94550664
:1049D00091E0E916F104C1F024F4E114F10461F06E
:1049E0001FC082E0E816F104C1F093E0E916F1047B
:1049F000B9F48091AC040AC084E00E94A507892B19
:104A000039F083E793E006C0809102018111F9CF6C
:104A10008CE793E00E94641B03C08091AD04F6CF45
:104A20002FEFE21AF20A86E0880E911CADCF0E94A9
:104A300046181092F7051092F6051092E4051092B0
:104A4000E3051092E5051092F8051092F905109211
:104A5000FA051092FB0565CF02301105A1F13CF477
:104A60000115110579F001301105B9F040C004308D
:104A7000110509F4C2C08CF105301105C1F50E9481
:104A80007310BBC084E00E94A507019719F465E884
:104A900073E009C069E873E006C0809102018823D1
:104AA00079F06DE873E0CE0101960E943906CE01DF
:104AB00001960E94B813CE0101960E94E20517C02C
:104AC00061E973E0F0CF8091AD04882319F065E9C6
:104AD00073E0E9CF69E973E0E6CF8091AC04882305
:104AE00019F06DE973E0DFCF61EA73E0DCCF0E947B
:104AF000361A109209061092080610920B061092B0
:104B00000A0626E02C9DC0012D9D900D11249E8744
:104B10008D877601812C912CC6010396988B8F8707
:104B20008F8598898E159F050CF44DC0E016F1060F
:104B300049F410920D0610920C06B0920F06A09246
:104B40000E0608C0B0920D06A0920C0610920F0639
:104B500010920E066D857E85680D791D665D794F14
:104B60008CEF95E00E94550691E0E916F104C1F042
:104B700024F4E114F10461F01FC082E0E816F104AE
:104B8000C1F093E0E916F104B9F48091AC040AC0D5
:104B900084E00E94A507892B39F083E793E006C0E3
:104BA000809102018111F9CF8CE793E00E94641B90
:104BB00003C08091AD04F6CF2FEFE21AF20A86E02F
:104BC000880E911CADCF0E9446181092F7051092E6
:104BD000F6051092E4051092E3051092E505109297
:104BE000F8051092F9051092FA051092FB0582E083
:104BF0000E94A507892BD9F394CE0E942E139B0106
:104C0000AC016091050170910601809103019091C2
:104C100004010E94511284EC95E00E94CB1B892B69
:104C200009F4F4CD6BE3CE0107960E94531ABE013E
:104C3000695F7F4FCE0101960E941F06CE0101964B
:104C40000E94B813CE0101960E94E205CE0107969C
:104C50000E94E205DBCD80E090E0892B09F4E2CCF4
:104C60000E940000DFCC83E00E94FE0782E00E94E9
:104C7000A507892B09F097CD0E942E139B01AC014B
:104C800060910501709106018091030190910401EA
:104C90000E945112EBCFCF93DF9389E293E0909380
:104CA000C5058093C4058091AA049091AB04845CEF
:104CB000954071F4E091D705F091D80590818091ED
:104CC000D9058095892380831092AB041092AA04A1
:104CD000CEE4D6E02697CE010E94E20586E0CA32F5
:104CE000D807C1F7DF91CF910895CF92DF92EF926D
:104CF000FF92CF931092BB051092BA0598EEC92E81
:104D000093E0D92EE12CF12CC092BC05D092BD05C8
:104D1000E092BE05F092BF0587E193E09093B9055C
:104D20008093B80561E474E08AE296E00E94390657
:104D30006FE474E080E396E00E9439066DE574E06C
:104D400086E396E00E9439066BE674E08CE396E019
:104D50000E94390669E774E082E496E00E94390611
:104D600060E974E088E496E00E9439061092FF053D
:104D70001092FE0520E830E03093010620930006F3
:104D800080E290E09093030680930206309305063C
:104D9000209304069093070680930606109211064E
:104DA000109209061092080610920B0610920A063D
:104DB000C1E0C09310068FEF9FEF90930F06809392
:104DC0000E0690930D0680930C06C0931206109267
:104DD000130610921506109214068BE393E090933D
:104DE000FD058093FC058FEF8093180680931C06C9
:104DF00080931A068093190680931B0682E08093A5
:104E0000F2051092F305C093F405C093F5051092D6
:104E1000F7051092F6051092E4051092E305109242
:104E2000E5051092F8051092F9051092FA05109216
:104E3000FB0584E190E0A0E0B0E08093E60590936C
:104E4000E705A093E805B093E90582E390E0A0E0D0
:104E5000B0E08093EA059093EB05A093EC05B09346
:104E6000ED05C092EE05D092EF05E092F005F092CC
:104E7000F10560E082E00E9485081092C70510925B
:104E8000C605C092C805D092C905E092CA05F09245
:104E9000CB0589E293E09093C5058093C4051092F9
:104EA000DB051092DA051092DD051092DC051092F8
:104EB000DF051092DE051092E1051092E005609189
:104EC000E2056E7F6D7F6093E205669561706C27E9
:104ED00086E00E94CE0761E086E00E948508EAE055
:104EE000F6E0E491E093D405E6EFF5E0E491F0E03C
:104EF000EE0FFF1FE452FA4F859194919093D605DF
:104F00008093D50560E085E00E9485088091E205E8
:104F100081FD04C061E085E00E94CE0785E08093BA
:104F2000D005E9E0F6E0E491E093D105E5EFF5E0A6
:104F3000E491F0E0EE0FFF1FEA51FA4F8591949152
:104F40009093D3058093D205CF91FF90EF90DF909F
:104F5000CF900895FC0188279927E8942191203269
:104F6000E9F3293010F02E30C8F32B3241F02D3206
:104F700039F4689404C00E94DE27820F911D2191AC
:104F800020532A30C0F31EF4909581959F4F0895C9
:104F90004532510520F4423010F00C94D327FB0128
:104FA0001082CB010895BB274A3031F4992322F4B3
:104FB000BDE2909581959F4F0C94E7277AE0979FEB
:104FC000902D879F802D910D11240895BB27FB0103
:104FD0005527AA27880F991FAA1FA41710F0A41BF2
:104FE00083955051B9F7A05DAA3308F0A95DA1934C
:104FF000009779F7B111B1931192CB010C94092864
:1050000091110C94EC28803219F089508550C8F722
:105010000895DC01FC01672F71917723E1F7329746
:1050200004C07C916D9370836291AE17BF07C8F383
:1050300008950E945B2808F481E00895E89409C06F
:1050400097FB3EF490958095709561957F4F8F4FBB
:105050009F4F9923A9F0F92F96E9BB279395F695D1
:10506000879577956795B795F111F8CFFAF4BB0F4F
:1050700011F460FF1BC06F5F7F4F8F4F9F4F16C0B3
:10508000882311F096E911C0772321F09EE8872F3D
:10509000762F05C0662371F096E8862F70E060E0F9
:1050A0002AF09A95660F771F881FDAF7880F969572
:1050B000879597F90895990F0008550FAA0BE0E816
:1050C000FEEF16161706E807F907C0F012161306CA
:1050D000E407F50798F0621B730B840B950B39F40A
:1050E0000A2661F0232B242B252B21F408950A2670
:1050F00009F4A140A6958FEF811D811D08950E949E
:1051000092280C9406290E94F82838F00E94FF2863
:1051100020F0952311F00C94EF280C94F52811241D
:105120000C943A290E94172970F3959FC1F3950FAB
:1051300050E0551F629FF001729FBB27F00DB11D1B
:10514000639FAA27F00DB11DAA1F649F6627B00DAB
:10515000A11D661F829F2227B00DA11D621F739F94
:10516000B00DA11D621F839FA00D611D221F749FA2
:105170003327A00D611D231F849F600D211D822FE9
:10518000762F6A2F11249F5750409AF0F1F0882310
:105190004AF0EE0FFF1FBB1F661F771F881F91503D
:1051A0005040A9F79E3F510580F00C94EF280C94D5
:1051B0003A295F3FE4F3983ED4F386957795679557
:1051C000B795F795E7959F5FC1F7FE2B880F911D67
:1051D0009695879597F9089599278827089597F9BF
:1051E0009F6780E870E060E008959FEF80EC08958D
:1051F00000240A94161617061806090608950024B6
:105200000A9412161306140605060895092E03942F
:10521000000C11F4882352F0BB0F40F4BF2B11F4A3
:1052200060FF04C06F5F7F4F8F4F9F4F089557FD02
:105230009058440F551F59F05F3F71F04795880F04
:1052400097FB991F61F09F3F79F08795089512169B
:1052500013061406551FF2CF4695F1DF08C0161647
:1052600017061806991FF1CF8695710561050894F8
:105270000895E894BB2766277727CB0197F908950F
:105280002F923F924F925F926F927F928F929F9256
:10529000AF92BF92CF92DF92EF92FF920F931F9344
:1052A000CF93DF93CDB7DEB7CA1BDB0B0FB6F894F5
:1052B000DEBF0FBECDBF09942A88398848885F8435
:1052C0006E847D848C849B84AA84B984C884DF80A6
:1052D000EE80FD800C811B81AA81B981CE0FD11D8A
:1052E0000FB6F894DEBF0FBECDBFED010895505844
:1052F000BB27AA270E948F290C9406290E94F82810
:1053000038F00E94FF2820F039F49F3F19F426F46A
:105310000C94F5280EF4E095E7FB0C94EF28E92FA8
:105320000E94172958F3BA17620773078407950775
:1053300020F079F4A6F50C9439290EF4E0950B2EA3
:10534000BA2FA02D0B01B90190010C01CA01A001D7
:105350001124FF27591B99F0593F50F4503E68F132
:105360001A16F040A22F232F342F4427585FF3CF73
:10537000469537952795A795F0405395C9F77EF444
:105380001F16BA0B620B730B840BBAF09150A1F08D
:10539000FF0FBB1F661F771F881FC2F70EC0BA0F13
:1053A000621F731F841F48F4879577956795B7959B
:1053B000F7959E3F08F0B0CF9395880F08F0992796
:1053C000EE0F9795879508950E94F8290C94062969
:1053D0000E94FF2858F00E94F82840F029F45F3F0F
:1053E00029F00C94EF2851110C943A290C94F528CB
:1053F0000E94172968F39923B1F3552391F3951B64
:10540000550BBB27AA2762177307840738F09F5FE5
:105410005F4F220F331F441FAA1FA9F335D00E2E52
:105420003AF0E0E832D091505040E695001CCAF7BF
:105430002BD0FE2F29D0660F771F881FBB1F261782
:1054400037074807AB07B0E809F0BB0B802DBF0159
:10545000FF2793585F4F3AF09E3F510578F00C9428
:10546000EF280C943A295F3FE4F3983ED4F38695F5
:1054700077956795B795F7959F5FC9F7880F911D49
:105480009695879597F90895E1E0660F771F881F35
:10549000BB1F621773078407BA0720F0621B730BE8
:1054A000840BBA0BEE1F88F7E09508950E941F2920
:1054B00088F09F5798F0B92F9927B751B0F0E1F0D5
:1054C000660F771F881F991F1AF0BA95C9F714C085
:1054D000B13091F00E943929B1E008950C94392936
:1054E000672F782F8827B85F39F0B93FCCF38695BE
:1054F00077956795B395D9F73EF49095809570951B
:1055000061957F4F8F4F9F4F08950E945B2808F44D
:105510008FEF08950E941F29E8F09E37E8F0963932
:10552000B8F49E3848F4672F782F8827985FF9CF12
:1055300086957795679593959539D0F3B62FB17089
:105540006B0F711D811D20F4879577956795939555
:105550000C94B32A0C94CE2A0C943A290E945B280E
:10556000880B990B0895882371F4772321F09850C4
:10557000872B762F07C0662311F499270DC0905111
:10558000862B70E060E02AF09A95660F771F881FDF
:10559000DAF7880F9695879597F908959F3F31F030
:1055A000915020F4879577956795B795880F911D51
:1055B0009695879597F9089597FB072E16F4009412
:1055C00007D077FD09D00E94212B07FC05D03EF4BF
:1055D000909581959F4F0895709561957F4F08959F
:1055E000A1E21A2EAA1BBB1BFD010DC0AA1FBB1FE7
:1055F000EE1FFF1FA217B307E407F50720F0A21B59
:10560000B30BE40BF50B661F771F881F991F1A94C5
:1056100069F760957095809590959B01AC01BD01EF
:10562000CF010895EE0FFF1F0590F491E02D09942E
:105630002A193B094C095D096E097F09800B910B02
:105640000895AA1BBB1B51E107C0AA1FBB1FA617C9
:10565000B70710F0A61BB70B881F991F5A95A9F71B
:1056600080959095BC01CD010895CF93DF93823052
:10567000910510F482E090E0E0915E06F0915F0603
:1056800020E030E0C0E0D0E0309711F1408151815E
:1056900048175907C0F04817590761F48281938170
:1056A000209719F09B838A832BC090935F06809389
:1056B0005E0626C02115310519F04217530718F46C
:1056C0009A01BE01DF01EF010280F381E02DDCCF02
:1056D0002115310509F1281B390B2430310590F4CF
:1056E00012968D919C9113976115710521F0FB0124
:1056F0009383828304C090935F0680935E06FD01CE
:10570000329644C0FD01E20FF31F81939193225022
:1057100031092D933C933AC020915C0630915D068F
:10572000232B41F420910F033091100330935D0639
:1057300020935C0620910D0330910E032115310555
:1057400041F42DB73EB74091110350911203241B31
:10575000350BE0915C06F0915D06E217F307A0F4CB
:105760002E1B3F0B2817390778F0AC014E5F5F4FB7
:105770002417350748F04E0F5F1F50935D06409386
:105780005C068193919302C0E0E0F0E0CF01DF91ED
:10579000CF9108950F931F93CF93DF93009709F450
:1057A0008CC0FC0132971382128200915E06109128
:1057B0005F060115110581F420813181820F931F4D
:1057C00020915C0630915D062817390779F5F09332
:1057D0005D06E0935C0671C0D80140E050E0AE1772
:1057E000BF0750F412962D913C911397AD012115EE
:1057F000310509F1D901F3CF9D01DA013383228309
:1058000060817181860F971F8217930769F4EC01FD
:1058100028813981260F371F2E5F3F4F3183208328
:105820008A819B8193838283452B29F4F0935F06C1
:10583000E0935E0642C01396FC93EE931297ED013F
:10584000499159919E01240F351FE217F30771F416
:1058500080819181840F951F029611969C938E935F
:105860008281938113969C938E931297E0E0F0E0EF
:10587000D80112968D919C911397009719F0F80119
:105880008C01F6CF8D919C9198012E5F3F4F820F36
:10589000931F20915C0630915D062817390769F443
:1058A000309729F410925F0610925E0602C01382B0
:1058B000128210935D0600935C06DF91CF911F91D9
:1058C0000F910895A0E0B0E0E8E6FCE20C944429D2
:1058D000EC01009721F4CB010E94352BB8C0FC01EC
:1058E000E60FF71F9C0122503109E217F30708F475
:1058F000ACC0D9010D911C91119706171707B0F094
:105900000530110508F49FC0C80104978617970752
:1059100008F499C002501109061B170B019311934B
:105920006D937C93CF010E94CA2B8DC05B01A01A9E
:10593000B10A4C01800E911EA0915E06B0915F06E7
:1059400040E050E0E12CF12C109709F44AC0A81572
:10595000B905D1F56D907C901197630182E0C80E76
:10596000D11CCA14DB0480F1A3014A195B096A0146
:1059700082E0C80ED11C1296BC9012971396AC917F
:10598000B5E0CB16D10440F0B282A38351834083AB
:10599000D9016D937C930AC00E5F1F4FC301800F26
:1059A000911FF90191838083EB2DFA2FE114F1040B
:1059B00031F0D7011396FC93EE93129744C0F09305
:1059C0005F06E0935E063FC08D919C91119748174A
:1059D000590708F4AC017D0112960D90BC91A02DE1
:1059E000B3CF80915C0690915D0688159905E1F42E
:1059F00046175707C8F480910D0390910E03009746
:105A000041F48DB79EB74091110350911203841B4E
:105A1000950BE817F907C8F4F0935D06E0935C0670
:105A2000F901718360830FC0CB010E94352B7C018B
:105A3000009759F0A801BE010E942C2DCE010E94B2
:105A4000CA2BC70104C0CE0102C080E090E0CDB7F0
:105A5000DEB7EEE00C946029FB01DC0102C001908E
:105A60000D9241505040D8F70895FB01DC018D9113
:105A7000019080190110D9F3990B0895FB01DC0105
:105A800001900D920020E1F70895FB01DC014150E7
:105A9000504048F001900D920020C9F701C01D92BE
:105AA00041505040E0F7089513E0CDE0D3E004C04A
:105AB000FE010E94122B2196CE30D107C9F7F8942F
:025AC000FFCF16
:105AC2000101013C002F00B203B20301FF000000FC
:105AD20000000000000000000000000000000000C4
